:020000040800F2
:1008000000500020217700088177000881770008D8
:1008100081770008817700088177000800000000D8
:1008200000000000000000000000000081770008C8
:10083000817700080000000081770008136200083B
:1008400081770008817700088177000881770008A8
:100850008177000881770008F9620008FF620008CC
:10086000056300080B630008116300088177000826
:100870008177000881770008817700088177000878
:10088000817700088177000881770008818C000853
:10089000758C0008817700088177000817630008CD
:1008A00081770008BD54000881770008D154000802
:1008B000D5540008E9540008FD54000875140008D8
:1008C000811400088D14000899140008817700082D
:1008D00081770008D96E0008F16E00080D6F0008DE
:1008E0002D63000881770008858C00080000000057
:1008F00000000000000000000000000000000000F8
:0C09000000000000000000005FF808F19B
:10090C0010B5054C237833B9044B13B10448AFF33D
:10091C0000800123237010BDA806002000000000F9
:10092C0070A5000808B5034B1BB103490348AFF38E
:10093C00008008BD00000000AC06002070A5000877
:10094C0000B595B0142200210CA808F0F1FD14227A
:10095C0000210DEB020008F0EBFD1022002101A894
:10096C0008F0E6FD01224FF480330E92CDE90A2304
:10097C000222CDE911234FF4E0130AA8139303F0DC
:10098C0027FD20B140F29A51144805F05BFF0F236C
:10099C0002214FF48062CDE90531002305A8CDE991
:1009AC000732099303F0EAFE20B140F2A6510B483E
:1009BC0005F048FF12234FF400410193002301A8D6
:1009CC00CDE9031303F096FF20B140F2AD5103487B
:1009DC0005F038FF15B05DF804FB00BFB8A50008A2
:1009EC0030B50C256D4B85B0032112206C4C1D606D
:1009FC0008F098FA0221202008F094FA0121152021
:100A0C0008F090FAE368012123F020031B041B0C6F
:100A1C00E3601F2008F086FA01211E2008F082FAFC
:100A2C0001211D2008F07EFA01211C2008F07AFA21
:100A3C000021092008F0DAFA0021082008F0D6FA83
:100A4C0000210A2008F0D2FA0021142008F0CEFA76
:100A5C000121092008F066FA0121082008F062FA49
:100A6C0001210A2008F05EFA0121142008F05AFA3C
:100A7C00E3680021C3F30E03E360E3681A2023F458
:100A8C0080431B041B0CE360E36823F400531B043A
:100A9C001B0CE360E36823F480531B041B0CE36022
:100AAC0008F040FA0021132008F03CFA0021222023
:100ABC0008F038FA0021212008F034FA00210F2028
:100ACC0008F030FA00211B2008F02CFA354800F011
:100ADC00C7F8354800F0C4F8344800F0C1F8344881
:100AEC0000F0BEF8334800F0BBF8334800F0B8F81B
:100AFC00284608F003FA314B31485A6E0021C0F8F1
:100B0C0084201B6EC0F8883000F0B4FA3C2201231C
:100B1C0002212C4801F004FB2A4801F081FB022140
:100B2C00202008F0FFF9202008F09CFA024660BB58
:100B3C00102301210390CDE9013100930146224B92
:100B4C00204800F03FFE1F4801F06AFB08F0C8FA8D
:100B5C0000F51C54103408F0C3FA844215D908F07F
:100B6C00BFFA10F480750BD10121202008F0DAF9BE
:100B7C002946202008F03AFA052008F0B3FAEAE7F3
:100B8C000221202008F0CEF9E5E70E4801F0A8FA82
:100B9C000C4805B0BDE8304001F042BBEC0700202A
:100BAC00000C0140C4060020C7060020CA06002025
:100BBC00CD060020D0060020D30600201CB3000870
:100BCC0028090020F0070020D6A5000870477047C0
:100BDC0007B54FF0FF310F4801F072FA0E4800F0E4
:100BEC0029F80E4800F026F80D4800F023F80D48BF
:100BFC0000F020F80C4800F01DF80C4800F01AF832
:100C0C002523162217210093094806F0ABFE03B0EA
:100C1C005DF804FBF0070020C4060020C706002086
:100C2C00CA060020CD060020D0060020D3060020E6
:100C3C00D8060020084A13780B2B09D8591C1170C0
:100C4C00064A037002EBC30340F2DC525A60704751
:100C5C00FF230370704700BF14080020C808002051
:100C6C0000230278074901EBC202537001EBC30267
:100C7C005278012A05D001330C2BF7D1024804F02D
:100C8C0047BB7047C80800201808002001490248DB
:100C9C0004F0FEBB0008004018080020014804F0D6
:100CAC0085BB00BF1808002000207047028BC08A4B
:100CBC00101A70470346C28A018B914281BF0169A9
:100CCC00885C0132DA8298BF4FF0FF307047028B9C
:100CDC00C38A9A4286BF0269D05C4FF0FF307047DE
:100CEC00806DD0F8DC302BB10023D43020F8B23C2E
:100CFC00C36818477047836810B5044613B10322C4
:100D0C0001469847204610BD00224FF47A71C0F876
:100D1C00CC20C0E90121C0F8DC200549054A01605E
:100D2C00516EC0F88410126EC0F88820704700BF56
:100D3C0018A600081CB300080123994080F8243041
:100D4C00002381764384704738B5838A05468B42ED
:100D5C000C4609D2202938BF20240069214608F00E
:100D6C002DFE10B12861AC8238BD2146BDE838405B
:100D7C00014805F067BD00BFF6A5000873B5846D8A
:100D8C000546D4F8CC30866EE3B1E28A238B9A42C6
:100D9C0018D331462046FFF7D7FF3246206905F1BC
:100DAC00740108F0B7FB0023E382D4F8CC3026831F
:100DBC0001960BB909F0D2FBD4F8D03001A904F19B
:100DCC00C400984702B070BDB1F5806F70B5054690
:100DDC000C4614D8038C8B420AD220290E4638BFFD
:100DEC002026C069314608F0E9FD18B1E8612E846F
:100DFC00204670BD3146034805F024FDF8E7002479
:100E0C00F6E700BFF6A5000813B590F824300446A9
:100E1C008DF807107BB1418C0131FFF7D5FF40B144
:100E2C000120638C9DF80710E269D154638C013367
:100E3C00638402B010BD01220DF10701283000F0CF
:100E4C0007FAB0FA80F04009F3E770B590F8243057
:100E5C0004460E46154683B1418C1144FFF7B4FF8E
:100E6C0088B1638CE0692A461844314608F052FB7D
:100E7C00638C2B446384284670BD92B2283000F0FA
:100E8C00E7F90028F7D00025F5E70346C06918B14B
:100E9C0000211A8C08F04CBB704738B50446D1B908
:100EAC004FF42A03A36594F8BE30012B16D1638C42
:100EBC00E269A17E04F1280000F004FA042828BF9E
:100ECC00042045B22046FFF7E0FF0023638484F83A
:100EDC002430E8B238BD4FF02A43E3E70425F8E7A5
:100EEC000121FFF7DABF002110B50446C18201834E
:100EFC00006910B1A28A08F01BFB00232046638412
:100F0C00FFF7C3FF10BD00002DE9F8430446D0F8ED
:100F1C00840006F02BFF002108F004F8D4F884209C
:100F2C00C2F30313042B49D8284D294E55F823300E
:100F3C0002F00F029B6856F82220DB4303EA1223CF
:100F4C009BB2002B40D0D4F8880006F00FFF012193
:100F5C0007F0E8FF1F4B204A1B681427B3FBF2F382
:100F6C000A225343D4F88800DFF870E0C0F3031171
:100F7C0000F00F0C042924D856F82C2055F82180A9
:100F8C00C2F30F22C8F81420DEF80490DEF80440F7
:100F9C00A4EB0904A342F9DCC8F81020DEF80440E5
:100FAC00DEF80420121B9342FADC013FE2D106F07A
:100FBC00DDFE3946BDE8F84307F0B4BF00239B685B
:100FCC00FFDE00235B61FBE7BDE8F883180400201B
:100FDC00E0AC00083404002040420F00001000E098
:100FEC002DE9F04100251F46D0F8DC3004460E46B2
:100FFC009046C0E90455C0E9075505838576C0F8CD
:10100C00800033B100F1D401032208469847C4E9AB
:10101C003755002384F82430730084F82530731E70
:10102C005E425E41204684F8BE6084F8BF8084F83E
:10103C00C07004F12805FFF767FF94F825304FF4D2
:10104C0080422846084900F033F894F8BE304BB97A
:10105C002846064900F090F92846BDE8F0410449BD
:10106C0000F083B9BDE8F081A0860100ED0C00080A
:10107C00890D00080A4600230121FFF7B1BF0000CB
:10108C000148FFF741BE00BF2809002010B5064CEF
:10109C00064B204640F8D43BFFF72DFE04F1C4006C
:1010AC00FFF729FE10BD00BF2809002018A6000874
:1010BC002DE9F7430D4616461F460446002800F05E
:1010CC008F805849C06D05F0ACFB57498046206EA7
:1010DC0005F0A7FB0146B8F1000F00D028B9534822
:1010EC0003B0BDE8F04306F01DBE404605F09FFB83
:1010FC00206008B94E48F3E74E4B04F104089842BF
:10110C0071D103F5DE33DA6942F40012DA61DA697F
:10111C0002F400120092009A1A6942F400121A6149
:10112C001A6922F400121A6142F21F03A4F8643007
:10113C00414BC3F800803C49206E05F053FBE06D39
:10114C00384905F04FFB3D4823688542636006D95A
:10115C003B48854203D93B48854288BF00204FF06D
:10116C00000994F8973035494A468D428CBF4FF4AC
:10117C0080454D464B450CBF4B464023236294F8AB
:10118C00983002214B450CBF4B468023A060636214
:10119C0094F96400C4E90357C4E90569C4F81C90C8
:1011AC0084F8419001F0D8F894F9640001F006F944
:1011BC004A46022194F9650001F0CEF894F96500D5
:1011CC0001F0FCF8404601F0FDF920B140F20B3182
:1011DC001D4805F037FB0023A366022384F89530E5
:1011EC0003B0BDE8F083194B9842A4D103F5DC336E
:1011FC00DA6942F48002DA61DA6902F4800201925F
:10120C00019A1A6942F480021A611A6922F4800266
:10121C001A6142F22123A4F86430074BC3F804800E
:10122C0089E700BFECAE0008BCAE00083CA6000885
:10123C006BA60008005400400C0A0020A086010098
:10124C00801A060040420F0085A600080058004096
:10125C00202A30B514D800239CB2A24207D890F8AB
:10126C0094301A44D2B280F89420002030BD90F80B
:10127C009440CD5C1C44044484F874500133EBE777
:10128C000120F3E710B564230446043001F042FA60
:10129C0002280AD0032801D068B910BD94F8413057
:1012AC00202B0CBF02200520F7E794F84130202BAF
:1012BC0018BF0620F1E794F84130202B0CBF022018
:1012CC000420EAE72DE9F74F05468B4691461F4669
:1012DC0001F02AF880463FB901225946284603B04E
:1012EC00BDE8F04FFFF7CEBF0026D5F830A01FFAAF
:1012FC008BFB04353B464A4659462846CDF800A0A0
:10130C0001F0BAFA0228044607D101F00DF8A0EB5F
:10131C000806642EEED906241BE010B3042418E052
:10132C0001F002F8C61B284602F0DDF930B9284658
:10133C0002F0D6F9202801D0632EF1D9284602F00C
:10134C00D2F9632E09D8820607D4430707D40028A4
:10135C00E4D1204603B0BDE8F08F0524F9E703245F
:10136C00F7E700F0E1FF0746E1E720B119B1C166EC
:10137C00043001F061BB704720B119B10167043032
:10138C0001F05ABB704770B590F891300446012BB0
:10139C000D46A0F1040609D1436E3BB1836E304675
:1013AC009847022384F89130002363668DB9E36E6D
:1013BC0084F891501BB1304684F8905098472046E1
:1013CC0094F8902004F170012023BDE8704001F0E6
:1013DC00BDBA00230122636684F89120616E204619
:1013EC00743131440423BDE8704001F0EABA10B501
:1013FC0090F891300446012B04D1436E13B1836EE7
:10140C0004389847022384F8913000232046636601
:10141C00BDE8104001F010BB436E10B51F2B044605
:10142C0010DC436E0133436694F89130012BDAB231
:10143C000CD1616E204621440423BDE8104070316C
:10144C0001F0BFBA024806F06DFCEDE710BD00BF1D
:10145C00A8A60008002380F89030704790F89230CE
:10146C000BB901F0E9BA7047014B186801F05EBC8A
:10147C000C0A0020014B186802F094B80C0A0020EA
:10148C00014B586801F052BC0C0A0020014B586803
:10149C0002F088B80C0A002070472DE9F04F1F4667
:1014AC0085B0BDF93880A7EB010AA8EB0209B9F1A8
:1014BC00000FB8BFC9F10009BAF1000FB8BFCAF1EB
:1014CC00000AD14583460C461646BDF83C3004DD77
:1014DC003A46344647460E469046BC4205DD3246F7
:1014EC004646904622463C4617463A1B91B200911E
:1014FC00A8EB060181EAE170A0EBE170C2F3C03504
:10150C0011B24645B4BF01224FF0FF320D44019099
:10151C006D100292BC421CDCDBF80020D145D2F8E5
:10152C001880C7BF3146224632462146039358469F
:10153C00C047019A039BAD1AA9B22DB2002D05DA52
:10154C00029A1644009A36B255182DB2013424B2C0
:10155C00E0E705B0BDE8F08F704710B4046824696B
:10156C00A44610BC604730B4BDF80850046802951E
:10157C00A46BA44630BC604730B4BDF80850046876
:10158C000295E46BA44630BC604770B4BDF90C50B6
:10159C00BDF810600468CDE90356246CA44670BCF9
:1015AC0060472DE9F3411C46164605460F46036875
:1015BC00013CBDF820805B693444984724B22B6809
:1015CC00CDF80480009428469C6A32463B46394646
:1015DC00A04728462B68DB6A02B0BDE8F0411847EB
:1015EC002DE9F341174604461D460E460368BDF827
:1015FC0020805B699847CDE9007822686B1E3344E4
:10160C002046956A31463A461BB2A84720462368C5
:10161C00DB6A02B0BDE8F04118472DE9F3471E46DE
:10162C0003680C465B6905461746BDF92880BDF872
:10163C002C9098472644B4422B680BDACDF80090D6
:10164C002146D3F820A03A46434628460134D047D9
:10165C0024B2F0E72846DB6A02B0BDE8F047184731
:10166C0013B50191B0F90E1002680091146C0022B0
:10167C00B0F90C301146A04702B010BD2DE9F7436C
:10168C009942164680460D461C46BDF92870BDF899
:10169C002C90026812D1BE42C2BF33463E461F4652
:1016AC00CDF828907B1C946B9B1B324629464046F8
:1016BC00A4461BB203B0BDE8F0436047BE420AD15A
:1016CC009942C2BF0B4625461C46CDF82890631C98
:1016DC005B1BD46BE9E753699847CDE90079D8F8DF
:1016EC00003040469F6A324623462946B84740465A
:1016FC00D8F80030DB6A03B0BDE8F04318472DE999
:10170C00F34704460F4616461D460368BDF82C8069
:10171C005B69BDF9289098472368CDF80080324664
:10172C0039462046D3F824A02B46D047236809F12C
:10173C00FF32CDF80080324439462046D3F824A03D
:10174C0012B22B46D0472368CDF80080324639467A
:10175C002046D3F820A04B46D047013D2368E91919
:10176C00CDF8008020461D6A32464B4609B2A84788
:10177C0020462368DB6A02B0BDE8F0471847704783
:10178C0001F00303B0F90A204376B0F90830C90719
:10179C0059BF8381C2818281C381704730B5018179
:1017AC00002442818181C2814FF0FF314FF0011240
:1017BC00034DC0E90512446005600461C46130BD8D
:1017CC00D0AB00082DE9F04F00263746354689B0DE
:1017DC000393BDF94C30BDF948800493BDF85030EB
:1017EC00CDE901120593BDF8543004460693036805
:1017FC005B69984718F1070348BF08F10E034FEADD
:10180C00E30A029B0499DA193BB2994212B229DD20
:10181C004FF00009039B03EB060B0FFA89F3984575
:10182C001FFA89F11BDD480704BFDB101BF80350BE
:10183C00236818BF6D009B6918BFEDB29C46019BD5
:10184C0015F0800F19440792DDE9053009B208BF85
:10185C0003462046E04709F10109079ADDE7013705
:10186C005644CEE720462368DB6A09B0BDE8F04F4A
:10187C00184700002DE9F04F91B016461D46C2697D
:10188C00BDF868308246BDF86C809DF870400591BB
:10189C000293002A40F0AD80B0F90C308B4240F33B
:1018AC002981B0F90E30B34240F32481062303FBA7
:1018BC000413002B40F31E8106EBC403002B40F3F2
:1018CC001981C37E1BB9AF2D84BF0135EDB2DAF897
:1018DC00003050465B69984705230A930023049314
:1018EC00864B05EB85052B440D93B3B20B93083354
:1018FC009BB20C93DDF82C900D9B4F46049ABDF8CF
:10190C0010509B5C0893A3B20793BDF8143003935B
:10191C0004FB05331BB2099323B20693039B1D44AE
:10192C002DB2089ADAF80030D10744D5012C35D104
:10193C00D3F818B0029B294650463AB2D847089BB8
:10194C0001375B080893079BBFB299440C9B1FFAA5
:10195C0089F9BB42E5D1049B01335BB204930A9B2A
:10196C00013B13F0FF030A93C4D1029B43450DD0F6
:10197C00012CDAF800202AD10399CDF8008005312A
:10198C00146A08233246504609B2A0475046DAF88A
:10199C000030DB6A11B0BDE8F04F1847029A019293
:1019AC00069A50460092D3F81CB0099913460FFAC8
:1019BC0089F2D847C3E7029A4245C0D0012C03D123
:1019CC00D3F818B04346B6E7CDF80480E8E7079B98
:1019DC00CDF8048003EB8301039B50460B4419465E
:1019EC00079B09B2DB000093D56923463246A84712
:1019FC00CCE7137A5168ED1AEDB2126801EBC5030E
:101A0C000B929A78012C0C92DA7893F906800D924D
:101A1C0093F9052098BF002331F835B093BF1D46CC
:101A2C000FFA88F306930693036807925B6988BFE5
:101A3C00BDF91C509847A3B20493BDF81430B2B250
:101A4C0005FB04350393ABB20A9300231F461D46D6
:101A5C00059242440F920D9A954297D2DDE904010A
:101A6C00069ADDF828802A4402FB001212B207996C
:101A7C000992039A56180C9AB6B29A18D2B20892D6
:101A8C000F9A02EB05090FFA89F9089A9A422ED09F
:101A9C005A1CD2B20E925A0701BF0B9A0BF10103DA
:101AAC0012F80B701FFA83FB3B060AD5012CDAF8EF
:101ABC00002010D1936950469C464A46029B31B295
:101ACC00E047049B7F00984401360E9BFFB2B6B2F0
:101ADC001FFA88F8D9E7029923B2CDE90031D2690F
:101AEC00504694460FFA88F1099AE047E9E7013528
:101AFC00EDB2B0E711B0BDE8F08F00BFC6A600088C
:101B0C007FB5C26904460B46002A32D10A2908D196
:101B1C00438A0282027E03EBC2036382012004B07B
:101B2C0070BD0D29FAD0017E807E70B10625B4F906
:101B3C00100005FB0100B4F90C50A842C1BFB4F968
:101B4C001200228200EBC1026282E28A02910192AF
:101B5C00A28A20460092B4F91010B4F91220FFF7B3
:101B6C0089FE237E228A03EB430302EB4303238289
:101B7C00D4E70A2907D100230382017E927A438A93
:101B8C0001FB0233C9E70D29C8D0157AA942C5D388
:101B9C00517A9942C2D351685D1B01EBC505AE78F1
:101BAC001EB3E97809B3017E807E90B195F90500EA
:101BBC000644B4F9100001FB0600B4F90C60B04205
:101BCC0007DD00262682B4F91200927A02FB01028C
:101BDC006282E28A02910192A28A20460092B4F9B2
:101BEC001010B4F91220FFF745FE2979227E238AC2
:101BFC0001FB0233BBE7407E7047B0F90C00704725
:101C0C00B0F90E0070470000F0B5457EBDF81440E9
:101C1C00022D45D0032D7CD0012D49D1D24305890D
:101C2C002A4412B2002AC0F2C380B0F9085095427F
:101C3C0040F3BE800029BEBF5B1800211BB2B0F977
:101C4C000A00CD188542C4BF431A1BB2002B40F3C7
:101C5C00AF80C1F3C400654E02EBC01211F0070156
:101C6C00DBB206EB020064D0C1F10807FFB2604D95
:101C7C00BB42ED5D80F0B2804FF0FF0CA7EB030E82
:101C8C004CFA0EFC012C0CEA050547D0022C77D03F
:101C9C00002C40F08D8016F802C02CEA050541E0BE
:101CAC00D24345892A44CD18018912B2491B09B285
:101CBC00002A7DDBB0F90A50954279DD0029BEBFC0
:101CCC005B1800211BB2B0F90800CD188542C4BFC7
:101CDC00431A1BB2002B6BDDD01001EBC011434833
:101CEC00012C014402F007004FF0010202FA00F24D
:101CFC00D2B26AD0022C5FD0002C59D1D2430B4403
:101D0C00D2B28B4254D011F8010B104001F8010CE7
:101D1C00F7E7CD184189491B09B283E716F802C0D1
:101D2C0045EA0C05BB42B55442D308390B44DBB22F
:101D3C008030072B18D9022C00F1800225D11946CE
:101D4C0012F8805C0839ED43C9B2072902F8805CAF
:101D5C0002F18002F4D8A3F10802C2F3C4020132EA
:101D6C0000EBC21003F0070313B3224A012CD35C1F
:101D7C001BD0022C1DD0DCB9027822EA030316E03A
:101D8C0016F802C085EA0C05CCE7012C4FF0FF35A4
:101D9C0018BF00251946EDB20839C9B2072902F857
:101DAC00805C02F18002F7D8D5E702781343037008
:101DBC00F0BD02785340FAE70B449942F8D011F881
:101DCC00010B504001F8010CF7E70B448B42EFD0AC
:101DDC0011F8010B104301F8010CF7E7012C9DD011
:101DEC00022CCDD0002CA0D155E700BF1000002054
:101DFC000800002000000020F0B5457EBDF814401E
:101E0C00022D3FD0032D00F08180012D42D1D51839
:101E1C000289521B12B20029C0F2D980B0F90A50C3
:101E2C008D4240F3D480002ABCBF9B180022B0F92D
:101E3C000850B8BF1BB2D018A842C4BFAD1A2BB201
:101E4C00002B40F3C480C81002EBC0126548012C73
:101E5C00024401F007004FF0010101FA00F1C9B290
:101E6C0062D0022C57D0002C40F0B180C9431344EF
:101E7C00C9B29A4200F0AB8012F8014B0C4002F848
:101E8C00014CF6E7C94305892944D518428909B2A2
:101E9C00521B12B20029C0F29A80B0F908508D4240
:101EAC0040F39580002ABEBF9B1800221BB2B0F9EC
:101EBC000A00D5188542C4BF801A03B2002B40F328
:101ECC008680C2F3C400474F01EBC01112F0070229
:101EDC00DBB207EB01053BD0C2F10806F6B2424873
:101EEC00B342805D77D24FF0FF0CA6EB030E4CFA99
:101EFC000EFC012C0CEA00001FD0022C4FD0002C41
:101F0C0065D117F801C02CEA00001AE0C9434589D5
:101F1C00294409B27FE713449A4258D012F8014B76
:101F2C004C4002F8014CF7E713449A424FD012F898
:101F3C00014B0C4302F8014CF7E717F801C040EADB
:101F4C000C00B342785442D3083A1344DBB28035C8
:101F5C00072B18D9022C05F1800225D1194612F84D
:101F6C00800C0839C043C9B2072902F8800C02F171
:101F7C008002F4D8A3F10802C2F3C402013205EBCB
:101F8C00C21503F0070313B3184A012CD35C1BD002
:101F9C00022C1DD0DCB92A7822EA030316E017F8CC
:101FAC0001C080EA0C00CCE7012C4FF0FF3018BFC9
:101FBC0000201946C0B20839C9B2072902F8800CB2
:101FCC0002F18002F7D8D5E72A7813432B70F0BDC5
:101FDC002A785340FAE7012CAFD0022CDFD0002C2A
:101FEC00B2D18EE710000020080000200000002075
:101FFC00F8B50D1E064614461F464DDBFFF7FDFDDA
:10200C00A84249DD002C47DB3046FFF7F9FDA04222
:10201C0042DD3046FFF7EFFD02281ED0032825D005
:10202C00012804D1E24333892C461A4415B2012FFE
:10203C0022D0022F31D07FBB23460122002CB8BF07
:10204C00E31D43F3CF0305EBC3151C4B04F007044E
:10205C00A2405C5D24EA02041DE0E44331897289EC
:10206C0001394D1B14442DB224B2E0E77389013BB6
:10207C005B1B25461CB2DAE72346002C04F0070252
:10208C00B8BFE31D012443F3CF0305EBC3150B4B82
:10209C0094405A5D14435C55F8BD23460122002C34
:1020AC00B8BFE31D43F3CF0305EBC315034B04F09B
:1020BC00070402FA04F45A5D5440ECE710000020C7
:1020CC0038B504460D4640228021FFF767FB034BD1
:1020DC002046236084F8225038BD00BF28AC00088D
:1020EC004FF480620021014807F022BA1000002052
:1020FC0038B50D46094C90F920102046FEF71CFE11
:10210C0000212046FEF780FE29462046FEF77CFE85
:10211C002046BDE83840FEF7E3BE00BF280900208A
:10212C0038B504460D4680F8202080F82110002197
:10213C003A48FEF79FFF2046AE21FFF7D9FF204615
:10214C00D521FFF7D5FF20468021FFF7D1FF204690
:10215C00A821FFF7CDFF20463F21FFF7C9FF2046FE
:10216C00D321FFF7C5FF20460021FFF7C1FF204612
:10217C004021FFF7BDFF8D212046FFF7B9FF012D50
:10218C000CBF102114212046FFF7B2FF204620215E
:10219C00FFF7AEFF20460021FFF7AAFF2046A12142
:1021AC00FFF7A6FF2046C821FFF7A2FF2046DA2141
:1021BC00FFF79EFF20461221FFF79AFF8121204650
:1021CC00FFF796FF012D0CBF9F21CF212046FFF773
:1021DC008FFFD9212046FFF78BFF012D0CBF222149
:1021EC00F1212046FFF784FF2046DB21FFF780FF1B
:1021FC0020464021FFF77CFF2046A421FFF778FF03
:10220C002046A621FFF774FF20462E21FFF770FF12
:10221C002046BDE83840AF21FFF76ABF28090020EF
:10222C002DE9F04105462121FFF762FF00212846E8
:10223C00FFF75EFF7F212846FFF75AFF2221284631
:10224C00FFF756FF00212846FFF752FF07212846CB
:10225C00FFF74EFF0024104EDFF84080304695F912
:10226C002010FEF769FD40213046FEF7CDFD04F14C
:10227C001007BFB218F8041001340748A4B2FEF7D7
:10228C00C3FDBC42F6D13046FEF72AFEB4F5806F92
:10229C00E4D1BDE8F08100BF280900201000002027
:1022AC007047000038B50E4B054618784FF47A731A
:1022BC00B3FBF0F30B4A1068B0FBF3F000F0A0F89E
:1022CC00044658B90F2D09D8024629464FF0FF3065
:1022DC0000F042F82046044B1D6038BD0120FCE79D
:1022EC00100400203404002014040020074A08B510
:1022FC001368032043F01003136000F01BF8002058
:10230C00FFF7D0FFFFF7CCFF002008BD00200240F4
:10231C00034A044B11681B780B441360704700BFD1
:10232C00140A002010040020014B1868704700BFED
:10233C00140A002007490302CA6803F4E06322F47C
:10234C00E0621204120C134343F0BF6343F40033F6
:10235C00CB60704700ED00E0164B30B5DC68C4F381
:10236C000224C4F10703251D042B28BF0423062DCA
:10237C004FF0FF3598BF002405FA03F388BF033CE8
:10238C0021EA0303A34005FA04F422EA040200281C
:10239C0043EA0203ACBF00F16040074A4FEA031363
:1023AC00DBB2ABBF00F5614000F00F0080F80033EA
:1023BC00135430BD00ED00E014ED00E0002808DB04
:1023CC000123420900F01F0003FA00F0014B43F80F
:1023DC002200704700E100E000280DDB01224309D8
:1023EC0000F01F0002FA00F0044A203342F82300E8
:1023FC00BFF34F8FBFF36F8F704700BF00E100E05A
:10240C000138B0F1807F0BD24FF0E023F021054A68
:10241C00586182F823100020072298611A617047D6
:10242C000120704700ED00E0002809DB0122430980
:10243C0000F01F0002FA00F0024A603342F8230059
:10244C00704700BF00E100E0704708B5FFF7FCFFE4
:10245C0008BD704710B5044650B1437903F0FF0234
:10246C0013B90271FFF7F5FF01230020637110BD52
:10247C000120FCE790F82130022B06D00423836363
:10248C00002380F820300120704703681A6822F07E
:10249C000E021A601A6822F001021A600123D0E9B8
:1024AC000F218B4053604FF48073038400207047DE
:1024BC0008B590F82130022B03D00423836301204C
:1024CC0008BD03681A6822F00E021A601A6822F01E
:1024DC0001021A60174A93421CD0143293421BD04B
:1024EC00143293421AD0143293421AD014329342BB
:1024FC001AD0143293420CBF4FF480134FF08073F8
:10250C000D4A53604FF480730384436B7BB198473F
:10251C000020D5E70123F3E71023F1E74FF4807394
:10252C00EEE74FF48053EBE74FF48033E8E71846BF
:10253C00C6E700BF080002400000024090F82100EE
:10254C0070470000044A08B55169014202D050613D
:10255C0003F0B6FE08BD00BF000401402DE9F846AB
:10256C0006460F4691461D464FEA114A3368BAF1AA
:10257C00010F0CBF5C699C6927EA0404A4B2B4FA8D
:10258C0084F46409A14501D0002017E06A1CEED048
:10259C00FFF7CAFE089BC01AA84201D8002DE5D14E
:1025AC00002320220120336386F83D2086F83E303C
:1025BC00326C86F83C3042F020023264BDE8F8867A
:1025CC007047000070B5044608B9012070BD90F842
:1025DC003D3003F0FF021BB980F83C20FFF7F0FF01
:1025EC00242384F83D3023681A6822F001021A6013
:1025FC001A6842F400421A601A6822F400421A6007
:10260C0002F058F93F4A6368934294BF3E4A3F4AEE
:10261C0090428CBF00220122002AD6D1394E3C496F
:10262C00B342B0FBF1F188BF4FF49676226800F10B
:10263C00FF30556825F03F0545EA010582BF71431F
:10264C004FF47A76B1FBF6F15560156A013125F03D
:10265C003F0529431162D1692A4D21F44F41AB4208
:10266C0021F0FF0132D85B00B0FBF3F0431C40F6C5
:10267C00FC70034242D0C3F30B030B43D3611168CC
:10268C00D4E9073021F0C00103430B431360916878
:10269C00D4E9030321F40341034321F0FF010B436D
:1026AC009360D168D4E9053021F0FF0103430B435B
:1026BC00D3601368002043F00103136020232064CF
:1026CC0084F83D30206384F83E007FE7A56855B957
:1026DC0003EB4303B0FBF3F30133C3F30B037BB105
:1026EC0043F40043C9E719256B43B0FBF3F3013303
:1026FC00C3F30B0323B143F44043BEE70423BCE70D
:10270C000123BAE7A08601007F841E00FF083D006C
:10271C0040420F002DE9F04F044685B01E460F468F
:10272C009146FFF701FE94F83D300546202B03D06F
:10273C00022005B0BDE8F08F00901923012220463D
:10274C004C49FFF70BFF0028F2D194F83C30012BD9
:10275C00EED0012384F83C3023684FF0010A1A684C
:10276C00DFF810B1D20758BF1A6807F0FE075CBF3C
:10277C0042F001021A601A6822F400621A602423E3
:10278C0084F83D3000232364A3F58033E362226890
:10279C004FF001111368204643F4807313603346E5
:1027AC0000220095FFF7DAFE236838B11B68DB05C1
:1027BC0002D54FF4007323640320BAE71F61FFF7BF
:1027CC00B3FD4FF0A008054623685A695B69C2F354
:1027DC004002C3F3802394F83D10A02901D0134389
:1027EC001DD04FF02008236884F83D805A6912F000
:1027FC00020F1A6842F400721A6025D0002203926C
:10280C005A69204603929B6901220393039B194941
:10281C0019230095FFF7A2FE88B1012089E7FFF785
:10282C0083FD401BB04200D80EB984F83D8023686C
:10283C005A695B69C2F34002C3F38023CBE784F887
:10284C003D8084F83C0074E76FF4806259465A610D
:10285C002046192301220095FFF780FE0028DCD1C9
:10286C000AF1010ACA4592D384F83D8084F83C00F1
:10287C00D3E700BF02001000F7B5002400940194C8
:10288C0090F83D40089D202C02D0022003B0F0BDF2
:10289C0004682668B60503D4082D01D0012D1ED17D
:1028AC0046F2A817284E3668B6FBF7F619277E4372
:1028BC000196019E013E0196019E6EB9202306638E
:1028CC0080F83D3080F83E60036C80F83C6043F04B
:1028DC00200303640120D9E7A669B707E9D490F86F
:1028EC003C60012ED1D02668F6075EBF266846F004
:1028FC0001062660266826F400662660212680F8EC
:10290C003D60102680F83E60002606644385438DAA
:10291C00C56241640385036B42620093009B112BDB
:10292C0005D1B5F52A0F02D0B5F12A4F03D1236892
:10293C0043F480732360002380F83C3062681846AF
:10294C0042F4E0626260A1E73404002037B590F8ED
:10295C003D4004F02804282C31D100292DD0002A28
:10296C002BD090F83C40012C29D005682C68E4074A
:10297C005EBF2C6844F001042C602C6824F40064C5
:10298C002C60292480F83D40202480F83E4000240F
:10299C0004644285428DC36201946B694162019368
:1029AC00AB69028580F83C4020460193019B6B6823
:1029BC0043F4E0636B6003B030BD0120FBE7022001
:1029CC00F9E737B590F83D4004F02804282C31D1B4
:1029DC0000292DD0002A2BD090F83C40012C29D076
:1029EC0005682C68E4075EBF2C6844F001042C6079
:1029FC002C6824F400642C602A2480F83D402024A8
:102A0C0080F83E40002404644285428DC3620194E8
:102A1C006B6941620193AB69028580F83C402046AA
:102A2C000193019B6B6843F4E0636B6003B030BDB2
:102A3C000120FBE70220F9E790F83D30202B14D160
:102A4C00282380F83D30036800201A68D2075EBF47
:102A5C001A6842F001021A601A6842F480621A6025
:102A6C005A6842F440725A607047022070477047AF
:102A7C007047704790F83D2008B5036DD2B283B90A
:102A8C00C36C0268012B836C05D1DBB21361036D3F
:102A9C000233036508BDC3F307231361036D0133D0
:102AAC00F7E7036D012B03D1836C0268DBB2F4E70B
:102ABC00036D022BEED1222A05D10268136843F470
:102ACC0080731360EAE7438D9BB263B1212A0AD16C
:102ADC00436A026813F8011B11614362438D013B89
:102AEC009BB24385D6E7438D9BB2002BD2D1212AD2
:102AFC00D0D10268516821F4E0615160116841F451
:102B0C00007111602022036380F83D2080F83E3074
:102B1C00FFF7AFFFBEE7704770470000002337B5E3
:102B2C0046F2A81101932C4B406A1B6890F83D208B
:102B3C00B3FBF1F323214B4301930368D2B2019908
:102B4C0041BB016C41F020010164446B0CB10021CC
:102B5C00A162816B09B100258D621D6825F4806529
:102B6C001D600025458504B1656301B14D6319688D
:102B7C0021F00101196090F83D10602911D120233A
:102B8C0080F83D30002380F83E300364FFF7C4FF2B
:102B9C0003B030BD01990139019119688905CED472
:102BAC00D3E702F02802282A0ED1196841F001015E
:102BBC001960196841F4806119600023036380F87F
:102BCC003D20FEF74BFCE3E7202380F83D3000234B
:102BDC0080F83E30F5E700BF3404002010B590F8C3
:102BEC003D2090F83E300446102BD9B2D2B2036887
:102BFC0001D0402913D1222A11D1196821F4006186
:102C0C001960596811F4006106D1602A1EBF202298
:102C1C0084F83D2084F83E100022226307E002F085
:102C2C0028012829EDD10022226384F83D105A682E
:102C3C0012F400624FD05A68606B22F400625A6042
:102C4C0090F82130012B374B2BD04363FFF730FC2E
:102C5C0050B12268606B136823F0010313602023CA
:102C6C0084F83D30436B9847236C19071FBF2268CB
:102C7C00536823F4E063536094F83D30226CDBB26C
:102C8C0052070DD5282B0BD1274B2022E3620023B2
:102C9C002046236384F83D2084F83E30FEF7A7FBE2
:102CAC0010BDA06B4363FFF703FC0028DCD0236846
:102CBC005A69510605D51A69636A1A70636A013339
:102CCC0063622268A06B136823F001031360202356
:102CDC0084F83D30C6E794F83D10602915D12021C9
:102CEC0084F83D1022645A69520605D51A69636A44
:102CFC001A70636A0133636222682046136823F0FA
:102D0C0001031360FFF708FFAEE75A69500605D5BB
:102D1C001A69636A1A70636A013363622046FEF7AC
:102D2C009DFBA1E7292B00080000FFFFF0B504462E
:102D3C0003688FB05A68C66A90F83E0094F83D104C
:102D4C001028C5B2C9B202D0402D40F0CA829F698A
:102D5C00586910F0010F07D1B6F52A0F02D0B6F161
:102D6C002A4F51D10FB0F0BD96054DD5E26AB2F5A0
:102D7C002A0F0CD10122E26294F83E20402A11D194
:102D8C00226D52B9626C02F0FE021A61EAE7E26A45
:102D9C00B2F12A4FF0D10822EDE7626C42F0010249
:102DAC00D2B2F2E72269B2F5804F1AD194F83D20E5
:102DBC00212A626C11D102F0FE021A61626B0AB117
:102DCC00926A2AB9A26B002ACCD0926A002AC9D086
:102DDC005A6842F400625A60C4E742F00102D2B26F
:102DEC00EBE7226D32B9626CD21102F0060242F0AE
:102DFC00F002CAE7226D012AB4D1626CD21102F042
:102E0C00060242F0F102C0E7060703D5960501D58C
:102E1C00626CE4E7860740F1E680960540F1E380BA
:102E2C0094F83E10E26A256B94F83D00C9B2222852
:102E3C0040F0D180206D40B9402906D100905A69EC
:102E4C0000929B690093009B8CE7216D89B92069E6
:102E5C00B0F5404F0DD101915A6901929A690192D6
:102E6C00019A1A6842F480721A60236D013323654B
:102E7C0078E7618D89B251B902915A6902929A69C7
:102E8C000292029A1A6842F400721A6019E0618D7B
:102E9C0089B2012949D112F5803F1BD11A6822F45D
:102EAC0080621A605A6812F400620CD01A6822F41C
:102EBC0080621A60002203925A6903929B69039301
:102ECC00039B0023D3E704925A6904929A690492F3
:102EDC00049AD7E7082A1CD0202A1AD0122D0DD11B
:102EEC00012A16D11A6822F480621A600022059217
:102EFC005A6905929B690593059BE2E7102AF1D864
:102F0C00964921FA02F2D607ECD51A6842F480628F
:102F1C00EBE71A6822F480621A60002206925A6962
:102F2C0006929A690692069AACE7618D89B20229DB
:102F3C0033D1102A05D88949D140C94311F0010178
:102F4C0020D0196841F4006119600021079159697A
:102F5C000791996907910799196821F480611960A3
:102F6C0059680D05ADD512F5803F06D0511E1F29AD
:102F7C00A7D87B4ACA40D007A3D55A6842F48052DE
:102F8C005A609EE7186840F480601860089159698F
:102F9C000891996908910899E2E7196841F48061F0
:102FAC001960596809050ED512F5803F07D0013A12
:102FBC001F2A08D86A4921FA02F2D20703D55A68A7
:102FCC0042F480525A60002209925A6909929B6914
:102FDC000993099B75E700220A925A690A929B6928
:102FEC000A930A9BBEE67F0740F18D805E6836052A
:102FFC003FF5B8AE0706C0F380063ED550053CD56C
:10300C00002E3DD194F83D20258D94F83E10D2B27F
:10301C00E06AC9B2C5B9212A18D1082858D020288D
:10302C0056D010F5803F53D05A6822F4E0625A60B3
:10303C0011232363002384F83E302023204684F898
:10304C003D30FFF714FD8DE6212A05D040297FF491
:10305C0089AE222A7FF486AE628D92B21AB95A6872
:10306C0022F48062B7E694F83E20402A16D120461E
:10307C000FB0BDE8F040FFF7FDBC002E3FF472AE80
:10308C0097057FF56FAE212939D1E16A94F83D207F
:10309C00212A7FF467AE628D92B24AB1626A12F84D
:1030AC00011B19616262638D013B9BB2638559E61A
:1030BC0008290DD020290BD011F5803F08D0596874
:1030CC0021F4E06159601123236384F83E20B4E7B6
:1030DC005A68204622F4E0625A601A6842F4007280
:1030EC001A6000232022236384F83D2094F83E20AC
:1030FC0084F83E30402AA4D1FFF7BBFC32E6402DC9
:10310C007FF430AEB3E759680E053FF52BAE45069C
:10311C00C0F380017BD5500579D500297AD194F87C
:10312C003D20222A7FF41EAE628D92B2032A19D959
:10313C001A69636A1A70636A01336362638D013BB7
:10314C009BB26385638D9BB2032B7FF40BAE22681D
:10315C00536823F48063536004E600BF140001003D
:10316C0081800080E06A02283FF4FCAD012A3FF622
:10317C00F9AD0B9146F2A811724A1268B2FBF1F24A
:10318C0002EB82020B920B9A013A0B920B99D1B97A
:10319C00226C204642F0200222645A6822F4E0623B
:1031AC005A601A69636A1A70636A01336362638DC9
:1031BC00013B9BB26385202384F83D3084F83E109C
:1031CC00FEF74CF9CEE51A6812F40072DBD11968DF
:1031DC0021F480611960596821F4E0615960196922
:1031EC00636A1970636A01336362638D013B9BB23E
:1031FC006385202384F83D3094F83E3084F83E20DB
:10320C00402B68D122632046FFF785FCAAE50029F4
:10321C003FF4A8AD92057FF5A5ADE26A608D616AB9
:10322C0080B2042809D15A6822F480625A601B6962
:10323C000B70636A0133636235E7608D80B20328DB
:10324C000CD15868042A20F480605860EFD0022A10
:10325C00EDD01A6822F480621A60E8E7608D80B2C3
:10326C000228E4D1012A01D0102A28D11A6822F4AC
:10327C0080621A601B690B70626A531C6362638DF7
:10328C00013B9BB2638523681B695370636A226898
:10329C0001336362638D013B9BB26385536823F4F6
:1032AC0040735360202384F83D3094F83E30402B1B
:1032BC004FF0000384F83E300DD12363A3E7042ABA
:1032CC0001D0022A03D11A6842F48062D1E71A684D
:1032DC0042F40072CDE7122320462363FFF7C8FBAC
:1032EC0040E5206C08B30025586987072CD5960556
:1032FC002AD5226C02B19D6994F83D2002F0280277
:10330C00282A15D15A686FEA950122F480625A6016
:10331C0000232F06204654BFA289228B01F0010105
:10332C0084F83C30FEF72FF81CE59D695869DCE702
:10333C0000220C9259690C919B6984F83C200C93E7
:10334C000C9B0FE534040020C60640F1B1809505B6
:10335C0040F1AE8094F83D505A68EDB222F4E06230
:10336C005A6000220D925A690D921A6842F00102BD
:10337C001A600D9A1A6822F480621A605A68100555
:10338C0020D505F0F702222A4AD1A06B02685268B8
:10339C0092B26285628D92B21AB1226C42F0040232
:1033AC0022645A6822F400625A60FFF7C7F80128B9
:1033BC0008D0A06B794B4363FFF77AF810B1A06B80
:1033CC00436B9847638D9BB213B323685A695107BB
:1033DC0009D51A69636A1A70636A01336362638D73
:1033EC00013B9BB2638523685A69520609D51A6959
:1033FC00636A1A70636A01336362638D013B9BB22B
:10340C006385638D9BB21BB1236C43F0040323646F
:10341C00236C13B320460FB0BDE8F040FFF7DEBBC2
:10342C00606B0268526892B26285628D92B21AB178
:10343C00226C42F0040222645A6822F400625A6040
:10344C00FFF77CF80128BDD0606B544B4363FFF74A
:10345C002FF80028B6D0606BB2E72A2D06D1236373
:10346C002823204684F83D30FDF7D6FF94F83D30F4
:10347C00282B0CD14A4B2022E362002320462363E5
:10348C0084F83D2084F83E30FDF7B1FF6AE4236BED
:10349C00222B02D0222D7FF465AC00232022236343
:1034AC0084F83D2084F83E302046FDF7B5FF59E402
:1034BC0001F0F7012129C0F3800535D1070627D586
:1034CC00560525D53DBB94F83D00628DC0B292B235
:1034DC00002A3FF447AC626A12F8015B1D6162621C
:1034EC00628D013A92B26285628D92B2002A7FF4AB
:1034FC0039AC29287FF436AC5A68204622F4806215
:10350C005A602823216384F83D30FDF7A3FF29E49A
:10351C00002D3FF427AC95057FF524AC628D92B25B
:10352C00002A3FF41FACB9E5400627D5510525D537
:10353C003DBB94F83D20618DD2B289B200293FF495
:10354C0011AC1969636A1970636A01336362638D24
:10355C00013B9BB26385638D9BB2002B7FF402AC65
:10356C002A2A7FF4FFAB2268536823F480635360EC
:10357C0022232363282384F83D3095E7002D3FF464
:10358C00F1AB92057FF5EEAB628D92B2002A3FF45F
:10359C00E9AB1A69636A1A704BE600BF292B000865
:1035AC000000FFFFF8B5036804465F695E6890F899
:1035BC003E20F805D2B2C7F300250BD5F105C6F3B2
:1035CC00002507D56FF4807101255961196841F404
:1035DC0000411960B80506D5F10542BF6FF40071C2
:1035EC0045F002055961780536D5F10534D5608D65
:1035FC0094F83D10202AD4F830C080B2C9B25BD107
:10360C00002859D101F0F700212804D0282953D1E2
:10361C00BCF1210F50D194F83D20E16AD2B20829B7
:10362C0001D020292AD1282A28D12C4A2046E2620E
:10363C005A6822F4E0625A606FF480625A611A6828
:10364C0022F480621A6000232022236384F83D2038
:10365C0084F83E30FDF7CBFE3A053BD5F30539D562
:10366C006FF40062236845F008055A61236C20460C
:10367C001D432564BDE8F840FFF7B0BA212A17D1E5
:10368C0016492046E1622263202284F83D20002264
:10369C0084F83E205A6822F4E0625A606FF480622B
:1036AC005A611A6822F480621A60FDF7D3FED3E7E0
:1036BC006FF480625A61CFE76FF48061102A596110
:1036CC0045F0040501D0402AC6D11A6842F40072B4
:1036DC001A60C1E7002DC9D1F8BD00BF0000FFFF83
:1036EC0090F83D007047006C7047F0B5044687B009
:1036FC0010B390F8A93203F0FF021BB980F8A8228E
:10370C0005F014FA032325466E4684F8A93255F8C1
:10371C00100B01F053FF0FCD0FC62B68271D336024
:10372C00264697E80E0056F8100B01F037FF0546B9
:10373C0020B1022384F8A93201254CE0014620680F
:10374C0001F046FF29464FF0010E28250846D4F813
:10375C0004C0CAB2944501F101011BD800232825ED
:10376C001946D8B2844503F1010320D8EC463546FE
:10377C000FCDACE80F002B68CCF8003097E80E00AA
:10378C00206801F027FF01230546E8B1022284F8E6
:10379C00A922D1E705FB0243C3E90E0083F829E017
:1037AC0083F82820DA8683F82B001864D1E705FB10
:1037BC000042C2E95E1182F8691182F8680182F850
:1037CC006B11C2F88011CCE784F82400206884F8CF
:1037DC00A93202F091F9284607B0F0BD38B590F83F
:1037EC00A8320446012B10D0012580F8A85200689D
:1037FC0001F0DBFE2946204600F0E2FD206802F0D5
:10380C0079F9002084F8A80238BD0220FCE710B535
:10381C0090F8A8220446012A0BD0012280F824102B
:10382C0080F8A822006802F05FF9002084F8A80252
:10383C0010BD0220FCE700002DE9F04F044685B0D6
:10384C00006802F05BF9010409D5DFF80C93DFF88E
:10385C000C832068B0F844301D0400F1C18020684E
:10386C0002F04CF942050FD522682046B2F84430DC
:10387C0023F480631B041B0CA2F8443005F0C3F93D
:10388C0000212046FFF7C3FF206802F037F94104FE
:10389C0008D52268B2F8443023F480431B041B0C77
:1038AC00A2F84430206802F029F9820408D5226875
:1038BC00B2F8443023F400531B041B0CA2F8443020
:1038CC00206802F01BF9C3041CD522682046B2F80C
:1038DC00403023F004031B041B0CA2F84030B2F858
:1038EC00403023F008031B041B0CA2F8403005F0F9
:1038FC00A7F92268B2F8443023F480531B041B0C44
:10390C00A2F84430206802F0F9F8070546D568465D
:10391C002368064619461A4603F1200532F8047B43
:10392C00954226F8027BF9D1B3F8402092B242F0CE
:10393C000102A3F84020B3F8402022F00102120447
:10394C00120CA3F84020B3F844205605FBD5B3F86D
:10395C00442022F480621204120CA3F8442030F8A4
:10396C00022B21F8042B8D42F9D1B3F840202046CC
:10397C0092B242F00802A3F84020B3F8442022F49B
:10398C0000621204120CA3F84420B3F8402092B247
:10399C0042F00402A3F8402005F042F9206802F03E
:1039AC00ADF882050BD522682046B2F8443023F4DA
:1039BC0000731B041B0CA2F8443005F020F920689E
:1039CC0002F09CF8C30508D52268B2F8443023F401
:1039DC0080731B041B0CA2F8443005B0BDE8F08FBB
:1039EC00B0F84460B1B216F00F0640F0C18011F08F
:1039FC0010012DD103889BB203EA090343F4004361
:103A0C000380B0F8503094F828209BB203EBC2032B
:103A1C0000EB4300B0F80434E26BC3F309036364B6
:103A2C001344E363204605F0E2F894F82430002BAD
:103A3C003FF40FAF226C002A7FF40BAF94F82430C4
:103A4C00216843F08003A1F84C3084F8242000E76F
:103A5C000588ABB215F4006521D0B0F8503094F85D
:103A6C0068219BB203EBC20300EB4303B3F80C34A5
:103A7C00B4F86E21C3F30903C4F8843104F52C7136
:103A8C0002F0E0FA22682046138823F070031B052D
:103A9C001B0D43F08003138005F09AF8D9E61B0444
:103AAC007FF5D7AE038823F070031B051B0D43F085
:103ABC0080030380B0F8503094F868219BB203EB7C
:103ACC00C20300EB4303B3F80C34C3F30903C4F88B
:103ADC0084318BB1D4F87C1171B1B4F86E2102F041
:103AEC00B1FAD4F87C31D4F8842129461344204609
:103AFC00C4F87C3105F072F821680B881F053FF57E
:103B0C00A8AEB1F85030D4F878519BB201F20C4009
:103B1C00CDB9C25A22F4F8421204120CC252C25A43
:103B2C0092B242F40042C2520B8823F4804323F039
:103B3C0070031B041B0C83F4405343F4004343F009
:103B4C0080030B8085E63E2D0AD86A08EE0748BF35
:103B5C000132920292B2E6E70F8FFFFF0080FFFF67
:103B6C006A09ED0608BF02F1FF3248EA8222F1E74A
:103B7C0030F8263019049FB240F1EE80282130F83D
:103B8C00263001FB064123F070031B051B0D43F08F
:103B9C00800320F8263091F8743100F5806CB3B9AD
:103BAC00B0F8503091F868219BB2063303EBC20396
:103BBC003CF81350C5F30905002D00F0B1802B46DD
:103BCC00B1F86E21D1F87C1102F03CFAA8E091F822
:103BDC006B2191F86831022A40F08180B0F8505086
:103BEC0017F4804AD1F880214FEAC30BADB207F02D
:103BFC00400E3BD0AB440BF1020B3CF81B50C5F311
:103C0C000905954213D90022C1F8802130F82320F0
:103C1C0022F4804222F070021204120C82F4005240
:103C2C0042F4004242F0800220F8232004E0521BB0
:103C3C00C1F88021002AE9D0BEF1000F0DD030F878
:103C4C00232022F4E04222F070021204120C42F4FF
:103C5C00004242F0C00220F82320002D60D0282121
:103C6C0001FB06412B46B1F87021ABE75D440635EC
:103C7C003CF81550C5F30905954212D9C1F880A13D
:103C8C0030F8232022F4804222F070021204120C2D
:103C9C0082F4005242F4004242F0800220F82320C9
:103CAC0004E0521BC1F88021002AE9D0BEF1000FBC
:103CBC000DD130F8232022F4E04222F070021204DD
:103CCC00120C42F4004242F0C00220F823203DB313
:103CDC00282101FB06412B46B1F8722172E730F81E
:103CEC00232022F4E04222F070021204120C42F45F
:103CFC00004242F0C00220F8232091F8683130F8DD
:103D0C002320DB0012F4804FB0F8502092B256D032
:103D1C00023213443CF81350C5F30905002DA1D110
:103D2C00282171436318D3F884212A44C3F88421D1
:103D3C00D3F87C212A44C3F87C21D3F880211AB112
:103D4C00D3F878319D4243D2282303FB0643204607
:103D5C0093F8681104F042FF3A067FF57AAD2825F6
:103D6C00206805FB064530F826309BB203EA0903B0
:103D7C0043F4004320F8263095F82B3095F82810A2
:103D8C00032B04D01BB1022B3AD1FB0538D42825C8
:103D9C00B0F8503005FB06429BB2023303EBC10373
:103DAC0000EB4303B3F800C4176CCCF3090C674564
:103DBC0015D800231364204604F019FF49E5063298
:103DCC0013443CF81350C5F30905002DA8D082E725
:103DDC0001F5B4712068214401F0A6FEBCE7A7EB05
:103DEC000C071764002FE6D006FB0555D16B536CFE
:103DFC0061446344D1635364611901F095FE28E575
:103E0C00282303FB0643B0F850C04FEAC10A1FFA3F
:103E1C008CFC17F040021B6C00F5806ED44407F448
:103E2C00804700F0E4800CF1020C3EF81CC0282204
:103E3C00CCF3090C9C4528BF002302FB064238BF7B
:103E4C00A3EB0C031364BFB2002B51D195F82920BE
:103E5C00002A3AD1B0F850600B01B2B200F204461D
:103E6C001644F25A22F4F8421204120CF252F25A8C
:103E7C0092B242F40042F252B0F8502000F20C40E0
:103E8C0092B21044C25A22F4F8421204120CC252DA
:103E9C00C25A92B242F40042C252204604F0A7FE2B
:103EAC00002F00F0E28095F82810226832F82130BB
:103EBC0023F4E04323F070031B041B0C43F4404336
:103ECC0043F0800322F82130CFE0012AE5D1B0F88D
:103EDC0050600A011FFA86FC00F204466644B35295
:103EEC00B0F8506000F20C40B6B230448352D4E7C4
:103EFC006FB130F8213023F4E04323F070031B043E
:103F0C001B0C43F4404343F0800320F8213028235A
:103F1C0003FB064393F84C20012A40F0A680DA6B91
:103F2C00D3F848E002EB0C075A6CDF6362445A6426
:103F3C009A6B964529D3AEEB020EC3F848E095F880
:103F4C0029C093B2BCF1000F44D1B0F850C000F2BC
:103F5C00044E1FFA8CFCF44409011ABB3CF80120F6
:103F6C0022F4F8421204120C2CF801203CF8012027
:103F7C0092B242F400422CF80120282101FB0646A3
:103F8C00328E394601F0C0FD6FE0BEF1000F03D157
:103F9C00624683F84CE0D2E7002283F84C209A6406
:103FAC007246CCE73E2A0CD84FEA520ED20748BFD5
:103FBC000EF1010E4FEA8E2E1FFA8EFE2CF801E048
:103FCC00DBE74FEA521ED20608BF0EF1FF3E48EA6D
:103FDC008E2EF1E7BCF1010FCFD1B0F850200901C2
:103FEC001FFA82FC00F2044262445352C5E70CF102
:103FFC00060C3EF81CC0BFB2CCF3090C9C4598BF14
:10400C00A3EB0C02282303FB06431A64002A52D1AB
:10401C0095F82930002B3CD1B0F850600B01B2B2AE
:10402C0000F204461644F25A22F4F8421204120C1E
:10403C00F252F25A92B242F40042F252B0F85020CC
:10404C0000F20C4092B21044C25A22F4F84212040C
:10405C00120CC252C25A92B242F40042C2522046D0
:10406C0004F0C5FD002F3FF41EAF95F82810226810
:10407C0032F821309BB223F4E04323F0400383F069
:10408C00300343F4004343F0800322F82130FFF760
:10409C00E0BB012BE3D1B0F850600B011FFA86FC9A
:1040AC0000F204466644F252B0F8506000F20C4044
:1040BC00B6B23044D2E76FB930F8213023F4E04384
:1040CC0023F070031B041B0C43F4404343F08003A8
:1040DC0020F82130282202FB064292F84C30012BAA
:1040EC00C3D1536CD76B6344D2F848E05364936BE1
:1040FC0067449E45D76322D3AEEB030EC2F848E06B
:10410C0095F829201FFA83FC002A3DD1B0F85020E5
:10411C0000F20C4E92B272440901EBB9535A23F4DB
:10412C00F8431B041B0C5352535A9BB243F40043E9
:10413C005352282101FB06466346728E21E7BEF1DD
:10414C00000F03D1634682F84CE0D9E70023936457
:10415C0082F84C307346D3E73E2B0CD84FEA530E03
:10416C00DB0748BF0EF1010E4FEA8E2E1FFA8EFEB2
:10417C0022F801E0DDE74FEA531EDB0608BF0EF123
:10418C00FF3E48EA8E2EF1E7012AD2D1B0F850302A
:10419C009AB200F20C4313440A0123F802C0C8E798
:1041AC0011F0800F70B505464FF0280401F00700A0
:1041BC001CD0012600FB044129444E700A614A7848
:1041CC000870CB7002B1C881022B04BF00230B71A5
:1041DC0095F8A832012B12D00123286885F8A83253
:1041EC0001F00CFA002085F8A80270BD00264443AB
:1041FC0004F5B4712C44294484F86961DEE702208B
:10420C00F3E711F0800F10B54FF02803044601F0CE
:10421C00070213D002FB03310144012048700A70DD
:10422C0094F8A832012B12D00123206884F8A8320C
:10423C0001F020FB002084F8A80210BD534303F5C5
:10424C00B47101440344002083F86901E7E70220BC
:10425C00F3E770B501F007052821002669434418DF
:10426C0001F5B4710144C4E95F23C4F8846184F896
:10427C00696184F86851006801F056FC304670BDE5
:10428C00282301F0070103FB0100D0F884017047DB
:10429C0070B501F00705282101FB05040026C4E9CF
:1042AC000F23012205FB011184F84C200144A36467
:1042BC00666484F8292084F82850006801F034FCE6
:1042CC00304670BD38B5436801F007059D42044681
:1042DC0028D811F0800F4FF028031AD0012205FBCB
:1042EC00033101444A7001230D708B7094F8A8229D
:1042FC009A4219D0206884F8A83201F08CFB25B9B9
:10430C00206804F52C7101F0FDFB002084F8A80254
:10431C0038BD00224B4303F5B4710344014483F8C8
:10432C006921E0E70120F3E70220F1E738B54368A3
:10433C0001F00F029A42044625D811F0800F4FF07D
:10434C00280301F0070215D002FB033101440120C0
:10435C00487000250A708D7094F8A832012B14D087
:10436C000123206884F8A83201F075FB284684F8F4
:10437C00A85238BD534303F5B471014403440020E3
:10438C0083F86901E5E70120F3E70220F1E710B5B6
:10439C00282411F0800F1BBF01F0070101FB044121
:1043AC0004FB0100401808BF00F5B47099B21AB9AB
:1043BC000273C180002010BD012283600273F9E7F3
:1043CC00704700000122014B1A62704700000E4238
:1043DC002DE9F341054638B30368DB0710D42B688D
:1043EC009F075ED42B68190700F195802B685A073C
:1043FC0000F1C180E869002840F02C81002029E000
:10440C00904C636803F00C03042B07D0636803F033
:10441C000C03082B0AD16368DE0307D523689C03C1
:10442C00DDD56B68002BDAD1012013E06B68B3F596
:10443C00803F12D1236843F480332360FDF774FF6F
:10444C00064623689803CAD4FDF76EFF801B6428C8
:10445C00F7D9032002B0BDE8F0819BB9236823F49F
:10446C0080332360236823F480232360FDF75CFFF3
:10447C00064623689903B2D5FDF756FF801B6428C6
:10448C00F7D9E6E7B3F5A02F236803D143F48023D3
:10449C002360CFE723F480332360236823F4802345
:1044AC00CBE7684C636813F00C0F07D0636803F01C
:1044BC000C03082B10D16368DA030DD423689B0717
:1044CC0002D52B69012BAFD123686A6923F0F8035D
:1044DC0043EAC203236085E72A695B4B6AB1012278
:1044EC001A60FDF721FF064623689F07ECD4FDF701
:1044FC001BFF801B0228F7D9ABE71A60FDF714FFEE
:10450C000646236898077FF56DAFFDF70DFF801BFE
:10451C000228F6D99DE7AA694A4E4B4BE2B101221B
:10452C00C3F88024FDF700FF0446736A9B070DD582
:10453C004FF4FA52454B1B68B3FBF2F3019300BFE7
:10454C00019B5A1E0192002BF9D14FE7FDF7ECFEAF
:10455C00001B0228E9D97CE7C3F88024FDF7E4FEB0
:10456C000446736A9F077FF541AFFDF7DDFE001B24
:10457C000228F6D96DE7334CE369D80024D401271F
:10458C00E36943F08053E361E36903F080530093E4
:10459C00009B2F4E3368D90518D5EB68012B26D11B
:1045AC00236A43F001032362FDF7BEFE41F2883813
:1045BC000646236A9B073FD5002F3FF41BAFE369E8
:1045CC0023F08053E36115E70027E2E7336843F4F7
:1045DC0080733360FDF7A8FE80463368DA05DCD4BF
:1045EC00FDF7A2FEA0EB08006428F6D931E7ABB9C1
:1045FC00236A41F2883823F001032362236A23F0F3
:10460C0004032362FDF790FE0646236A9807D3D570
:10461C00FDF78AFE801B4045F7D91AE7052B236A64
:10462C0003D143F004032362BAE723F001032362AE
:10463C00236A23F00403B6E7FDF776FE801B4045A2
:10464C00B7D906E7001002400000424234040020B3
:10465C00007000402A4C636803F00C03082B3ED01A
:10466C000022284B02281A662CD1FDF75DFE064667
:10467C002368990120D42B6AB3F5803F05D1626879
:10468C00A96822F400320A436260696A62680B43CB
:10469C0022F474121343012263601A4B1A66FDF75D
:1046AC0043FE054623689A013FF5A8AEFDF73CFE94
:1046BC00401B0228F6D9CCE6FDF736FE801B0228FB
:1046CC00D6D9C6E6FDF730FE054623689B017FF57B
:1046DC0095AEFDF729FE401B0228F6D9B9E6012854
:1046EC003FF4B8AE63682A6A03F4803191427FF4D8
:1046FC009BAE6A6A03F4701393423FF47FAE93E669
:10470C00001002400000424230B5184B87B002AC9A
:10471C0003F11005224618685968083303C2AB42EE
:10472C001446F7D140F201231149ADF804304B681F
:10473C0003F00C02082A17D1C3F3834218326A44DF
:10474C00DB0312F8100C0CD54B680A4AC3F3404338
:10475C00504318336B4413F8143CB0FBF3F007B020
:10476C0030BD054B5843FAE70248F8E778AC00082F
:10477C000010024000127A0000093D002DE9F041C2
:10478C000D46044610B90120BDE8F081444A136877
:10479C0003F007038B4228D321688E0730D4CA0755
:1047AC0043D43F4A136803F00703AB4265D8226831
:1047BC003C4D12F0040F6CD1130706D56B682269BF
:1047CC0023F4605343EAC2036B60FFF79DFF6B68F1
:1047DC00354AC3F30313D35CD840344B1860344BC5
:1047EC001868FDF75FFD0020CEE7136823F0070380
:1047FC000B431360136803F007038B42C3D1CBE761
:10480C00284B11F0040F1EBF5A6842F4E0625A6044
:10481C00080742BF5A6842F460525A605A68A0684E
:10482C0022F0F00202435A60B9E762681D4E012A79
:10483C0033681AD113F4003FA5D0736841F288385D
:10484C0023F0030313437360FDF76EFD0746736893
:10485C00626803F00C03B3EB820FA2D0FDF764FD8A
:10486C00C01B4045F3D903208EE7022A02D113F076
:10487C00007FE1E713F0020FDEE7136823F0070374
:10488C002B431360136803F00703AB427FF47BAF39
:10489C008DE76B68E16823F4E0630B436B608BE797
:1048AC00002002400010024030AD0008340400200B
:1048BC0014040020044B054A5B68C3F30223D35C49
:1048CC00034A1068D84070470010024040AD000801
:1048DC0034040020044B054A5B68C3F3C223D35C49
:1048EC00034A1068D84070470010024040AD0008E1
:1048FC003404002003682DE9F341D907054620D57F
:10490C00364CE369DA0032D40126E36943F0805374
:10491C00E361E36903F080530193019B304F3B68E3
:10492C00DB0526D5236A13F4407336D1236A6A68F3
:10493C0023F44073134323621EB1E36923F08053C5
:10494C00E3612868830706D52449AB684A6822F4DA
:10495C0040421A434A6010F010001BD01F4AE9680D
:10496C005368002023F480030B43536012E00026AD
:10497C00D4E73B6843F480733B60FDF7D5FC80467D
:10498C003B68D805CED4FDF7CFFCA0EB080064281B
:10499C00F6D9032002B0BDE8F0816A6802F44072D7
:1049AC009A42C3D001200F4A236AC2F84004002067
:1049BC0023F44071C2F840042162D907B6D5FDF743
:1049CC00B3FC41F288380746236A9A07AED4FDF748
:1049DC00ABFCC01B4045F7D9DBE700BF0010024021
:1049EC000070004000004242704710B50446002899
:1049FC0051D0436A002B4AD14268B2F5827F00D075
:104A0C00C3610023A36294F8513003F0FF0223B971
:104A1C00204684F85020FFF7E7FF0223226884F831
:104A2C0051301368A06823F040031360636800F4EE
:104A3C00044003F482730343E068A16900F400604E
:104A4C000343206900F002000343606900F0010099
:104A5C00034301F400700343E069090C00F03800D3
:104A6C000343206A01F0040100F080000343A06AB4
:104A7C0000F40050034313605160D369002023F409
:104A8C000063D3610123606584F8513010BD0023AD
:104A9C00C0E90433B5E70120F8E741F211120368CD
:104AAC00196A114208D140F24442196A114202BFFC
:104ABC001A6822F001021A60012380F83D300020B0
:104ACC00704770477047036810B51A690446910720
:104ADC000ED5DA6892070BD56FF002021A6101222B
:104AEC0002779B699B0777D000F056FD0023237754
:104AFC0023681A69500710D5DA6851070DD56FF085
:104B0C0004021A61022222779B69204613F4407F2B
:104B1C0068D000F041FD0023237723681A6912073F
:104B2C000FD5DA6810070CD56FF008021A61042251
:104B3C002277DB69204699075AD000F02DFD00231F
:104B4C00237723681A69D20610D5DA68D0060DD5FA
:104B5C006FF010021A6108222277DB69204613F4E9
:104B6C00407F4BD000F018FD0023237723681A698F
:104B7C00D10708D5DA68D20705D56FF001022046B7
:104B8C001A6100F0DDFC23681A69100608D5DA6892
:104B9C00110605D56FF0800220461A6100F09BF8D3
:104BAC0023681A69520608D5DA68500605D56FF0E5
:104BBC00400220461A61FFF785FF23681A699106A7
:104BCC0022D5DA6892061FD56FF020022046BDE888
:104BDC0010401A6100F07EB800F0DCFC2046FFF7B4
:104BEC0070FF83E700F0D6FC2046FFF76AFF92E7E0
:104BFC0000F0D0FC2046FFF764FFA0E700F0CAFCF1
:104C0C002046FFF75EFFAFE710BD00001A4A0368AD
:104C1C0090420AD0B0F1804F07D0A2F59432904266
:104C2C0003D002F58062904215D14A6823F07003DC
:104C3C001343114A90420AD0B0F1804F07D0A2F52D
:104C4C009432904203D002F58062904203D1CA683C
:104C5C0023F4407313434A6923F080031343036026
:104C6C008B68C3620B688362034B984204BF0B6969
:104C7C000363012343617047002C014010B50446C7
:104C8C0030B390F83D3003F0FF021BB980F83C20A4
:104C9C0001F0C8FE0223206884F83D30211DFFF787
:104CAC00B5FF0123002084F8463084F83E3084F8A8
:104CBC003F3084F8403084F8413084F8423084F836
:104CCC00433084F8443084F8453084F83D3010BDCE
:104CDC000120FCE7704770470368DA6822F4907291
:104CEC00DA605A6922F001025A61026B012A02BF92
:104CFC00DA6822F01002DA60202380F83E300023BC
:104D0C000363704710B504460368C1681A6922F43E
:104D1C0040520A431A6182680069D968024360698B
:104D2C0021F4B05121F00C0102430A43DA605A69B4
:104D3C00A16922F440720A435A610E4A934215D17A
:104D4C00FFF7C8FD19234343626820689200B3FB48
:104D5C00F2F36422B3FBF2F102FB11331B01323389
:104D6C00B3FBF2F303EB0113836010BDFFF7A2FD5D
:104D7C00E8E700BF00380140F8B504460E46174678
:104D8C001D462268136836EA030301D1002014E0A3
:104D9C006B1CF7D095B923680320DA6822F4D07223
:104DAC00DA605A6922F001025A61202384F83D30FE
:104DBC0084F83E30002384F83C30F8BDFDF7B4FA9B
:104DCC00C01B8542DDD2E6E7704710B5044640B300
:104DDC0090F83D3003F0FF021BB980F83C20FFF740
:104DEC00F3FF2423226884F83D30D368204623F453
:104DFC000053D360FFF786FF236800201A6922F462
:104E0C0090421A615A6922F02A025A61DA6842F415
:104E1C000052DA602023206484F83D3084F83E3060
:104E2C0010BD0120FCE710B5044660B390F83D308E
:104E3C0003F0FF021BB980F83C20FFF7C5FF2423C9
:104E4C00226884F83D30D368204623F40053D360A5
:104E5C00FFF758FF236800201A6922F490421A6168
:104E6C005A6922F022025A615A6942F008025A61C8
:104E7C00DA6842F40052DA602023206484F83D3072
:104E8C0084F83E3010BD0120FCE72DE9F84399462B
:104E9C0090F83D300446202B0E46174648D1002989
:104EAC0044D0002A42D090F83C30012B40D0012352
:104EBC00002580F83C302123056480F83D30FDF757
:104ECC0033FAA3688046B3F5805FA784E78403D1E7
:104EDC0023690BB935461E46002384F83C30E38C1D
:104EEC009BB253B94B46424640212046FFF744FF44
:104EFC0050B9202384F83D3007E04B4642468021D0
:104F0C002046FFF739FF10B10320BDE8F883226873
:104F1C004EB935F8023BC3F308035360E18C0139F9
:104F2C0089B2E184DBE716F8013BF6E70120ECE7F8
:104F3C000220EAE790F83D30202B18D1A9B1A2B19C
:104F4C0090F83C30012B12D0C284002382842122A1
:104F5C0001620168036480F83C3080F83D20CA6827
:104F6C00184642F08002CA60704701207047022048
:104F7C00704708B50023406AC385C38401F068FFFD
:104F8C0008BD704707B58168836AB1F5805F026818
:104F9C0034D10169002934D15268C2F3080223F8D4
:104FAC00022BC28D8362013A92B2C2851ABB03688E
:104FBC00D96821F02001D960D96821F48071D960B9
:104FCC00596921F001015961202180F83E10016BD3
:104FDC00012920D10263D96821F01001D960196828
:104FEC00C90605D501921A6801925B680193019B71
:104FFC00818DFFF7C6FF03B05DF804FB39B9016979
:10500C0029B95268D2B21A70836A0133C9E752685F
:10501C0002F07F02F7E701F015FFECE7036837B504
:10502C001A68044612F00F0FD9685D690CD1950609
:10503C0067D58D0665D590F83E30222B5BD103B039
:10504C00BDE83040FFF79EBF05F0010001F49075FC
:10505C00054356D0D50705D5CB0542BF236C43F08D
:10506C0001032364550704D518B1236C43F00203E4
:10507C002364930704D518B1236C43F00403236411
:10508C00150707D501F0200303431EBF236C43F023
:10509C0008032364236C73B3920608D58B0606D5DC
:1050AC0094F83E30222B02D12046FFF76BFF236889
:1050BC0020465B69256C03F0400305F008051D4391
:1050CC001BD0FFF709FE23685A69550610D55A699B
:1050DC00A06B22F040025A6150B1534B4363FDF771
:1050EC00E7F940B1A06B436B03B0BDE83040184703
:1050FC00204601F0ADFE03B030BD01F0A9FE2564E1
:10510C00F9E7206B012855D1D00653D5CD0651D5E2
:10511C00002101911A6801925A680192019A5A6908
:10512C0012F040022AD0A06B0268526892B2002A98
:10513C00E1D0A58D9542DED9E2858269202A15D071
:10514C00DA6822F48072DA605A6922F001025A613C
:10515C005A6922F040025A61202284F83E202163D1
:10516C00DA6822F01002DA60FDF784F9E38DA18D84
:10517C00C91A89B22046FFF704FFBCE7E18D88B25B
:10518C00E18D89B20029B6D0A18D091A89B2002906
:10519C00B1D0D86820F49070D860586920F0010024
:1051AC005861202084F83E002263DA6822F0100255
:1051BC00DA60DFE7100626D50D0624D594F83D20DD
:1051CC00212A98D1A168226AB1F5805F16D1216994
:1051DC00A1B932F8021BC1F3080159602262E28CBA
:1051EC00013A92B2E284002A85D1DA6822F0800278
:1051FC00DA60DA6842F04002DA607CE7511C216226
:10520C0012785A60EBE750067FF575AF4A067FF5CA
:10521C0072AFDA68204622F04002DA60202384F86C
:10522C003D3001F012FE66E77F4F000890F83C30ED
:10523C00012B11D02423026880F83D30D36823F071
:10524C000C0343F00803D360202380F83D30002387
:10525C0080F83C30184670470220704790F83C307C
:10526C00012B11D02423026880F83D30D36823F041
:10527C000C0343F00403D360202380F83D3000235B
:10528C0080F83C30184670470220704790F83D205B
:10529C0090F83E0010437047C285828581620346B8
:1052AC0022220020186483F83C0083F83E201B68FF
:1052BC00DA6842F48072DA605A6942F001025A618B
:1052CC00DA6842F02002DA60704770B490F83E6001
:1052DC00202E10D161B15AB190F83C40012C0AD06B
:1052EC00012480F83C400024046370BCFFF7D4BF59
:1052FC00012070BC70470220FBE7836810B50446A0
:10530C002BB10322014698470023C4E9023310BD98
:10531C0010B5044650F8103FDA6822F00102DA604A
:10532C00DA6822F00202DA60DA6822F00402DA604B
:10533C00DA6822F00802DA60DA6822F01002DA6029
:10534C00FFF7ABFB2269136823F001031360012301
:10535C0084F84E3084F84F3084F8503084F8513053
:10536C0084F8523084F8533084F8543084F8553033
:10537C0010BD00000C4A034690420ED0B0F1804F95
:10538C000DD0A2F5943290420BD04FF6FF7002F57F
:10539C008062934208BF03207047002070470120B1
:1053AC0070470220704700BF002C0140014670B5C9
:1053BC00044651F8100FFFF7DDFF0546084601F0D3
:1053CC00B7FA0023084A04F1600642F82530E3607E
:1053DC0004F1B005B54204D0103D2846FBF78BFC18
:1053EC00F8E7204670BD00BF180A0020F8B5044647
:1053FC000846FFF7BFFF4FF6FF7398420D4606466F
:10540C0003D14D21204801F01DFA23691BB1522113
:10541C001D4801F017FA1D4A04F10C0342F826301E
:10542C0000230E2204F1100625613046C4E90C332A
:10543C00C4E90E33C4E91033C4E9162384F82C30C4
:10544C00A36484F84C3084F84D30E46001F02CFAFD
:10545C0004F1600504F1B00728461035FFF74DFF45
:10546C00AF42F9D100234FF6FF72C4E90033C4E90F
:10547C000632C4E90833A360636180233046A3621B
:10548C00BDE8F840FFF7FABB89AC0008180A002009
:10549C00002310B5044683668367C0F88830C0F8D3
:1054AC009830C0F8A8300361FFF7A0FF204610BD6C
:1054BC00034B186810B10430FFF705BB704700BFF1
:1054CC00180A0020FFF7F4BF034B586810B10430E2
:1054DC00FFF7F9BA704700BF180A0020034B986811
:1054EC0010B10430FFF7EFBA704700BF180A002064
:1054FC00034BD86810B10430FFF7E5BA704700BF12
:10550C00180A0020826810B50AB905F027F8C3689C
:10551C00BDE810401847000010B5044620B940F211
:10552C006141064801F08EF9204601F0BBF9006894
:10553C00836E13B16030FFF7E5FF10BD89AC000836
:10554C00FFF7EABF38B5054620B940F27441104860
:10555C0001F078F92B7F013B072B11D8DFE803F022
:10556C0015041011101010130224284601F09AF99A
:10557C000068063400EB041083680BB1FFF7C2FF20
:10558C0038BD0324F1E70424EFE70124EDE700BF65
:10559C0089AC0008FFF7D6BFFFF7D4BF84B001A8D1
:1055AC0080E80E0004B00020704703464FF43F42E1
:1055BC000020A3F84400A3F840207047B0F8403016
:1055CC0023F47C535B045B0CA0F840300020704744
:1055DC000020704784B010B5044603A880E80E0084
:1055EC0000200123A4F84030A4F84000A4F84400A3
:1055FC00A4F85000BDE8104004B07047F0B50A782C
:10560C00CD7830F82240034624F4EC4424F07004A6
:10561C002404240C032D48D8DFE805F00244424052
:10562C00284644F4007448F28006344323F82240A0
:10563C0033F822408C4FA4B23C401443344323F83B
:10564C0022400C7B03EB021C002C7BD1CE884C78C7
:10565C00760876005CB3B3F85040A4B26444A4F866
:10566C00006433F822104E0609D533F8221089B2A3
:10567C00394041F4004141F0C00123F8221033F8C5
:10568C0022107A4C89B2012D01EA040101D081F07B
:10569C00200141F4004141F08001A9E044F4C064D0
:1056AC000020C0E744F48064FAE70120BBE7B3F8BC
:1056BC0050400D69A4B26444A4F80864B3F8504097
:1056CC00A4B264446DBBB4F80C1421F4F841090481
:1056DC00090CA4F80C14B4F80C146FEA41416FEAED
:1056EC00514189B2A4F80C1433F822104F040DD593
:1056FC0033F8221021F4E04121F070010904090C67
:10570C0041F4404141F0800123F8221033F822107B
:10571C0021F4804121F070010904090C81F44051FD
:10572C00B7E73E2D05D86908ED0748BF013189025E
:10573C00D7E76E09E9064E4908BF06F1FF3641EA84
:10574C008621CEE733F82260B6B23E4046F40146DD
:10575C0046F0800623F82260B3F850400E89A4B2BC
:10576C00760864447600A4F800644E89B3F850407F
:10577C007608A4B264447600A4F808644978D1BBD6
:10578C0033F822104E0409D533F8221089B239406F
:10579C0041F4404141F0800123F8221033F82210EB
:1057AC004D060DD533F8221021F4E04121F07001A3
:1057BC000904090C41F4004141F0C00123F8221006
:1057CC0048F2800433F8221021F4804121F070015A
:1057DC000904090C81F44051214323F8221033F8B9
:1057EC00221021F4E04121F040010904090C21436D
:1057FC0023F82210F0BD33F822104C0409D533F8ED
:10580C00221089B2394041F4404141F0800123F823
:10581C00221033F8221049060DD533F8221021F44A
:10582C00E04121F070010904090C41F4004141F000
:10583C00C00123F8221033F822100C4C89B22140FD
:10584C00012D18BF81F0200141F4004141F080018D
:10585C0023F8221033F8221021F4804121F070013A
:10586C000904090C15E700BF8F8FFFFFBF8FFFFFE7
:10587C000080FFFF4A780B78097BD9BB0AB330F85C
:10588C00232051060DD530F8232022F4E04222F0DB
:10589C0070021204120C42F4004242F0C00220F8D2
:1058AC00232030F8232022F4E04222F0400212049C
:1058BC00120C42F4004242F0800220F82320002017
:1058CC00704730F8232052040DD530F8232022F4F1
:1058DC00E04222F070021204120C42F4404242F0F8
:1058EC00800220F8232030F8232022F4804222F07A
:1058FC007002DCE7002A48D130F8232051040DD582
:10590C0030F8232022F4E04222F070021204120C30
:10591C0042F4404242F0800220F8232030F8232049
:10592C0052060DD530F8232022F4E04222F070020A
:10593C001204120C42F4004242F0C00220F8232060
:10594C0048F2800130F8232022F4E04222F0700269
:10595C001204120C42F4004242F0C00220F8232040
:10596C0030F8232022F4804222F070021204120C30
:10597C000A4320F8232030F8232022F4E04222F0BE
:10598C0040021204120C0A4397E730F8232051040A
:10599C000DD530F8232022F4E04222F070021204DC
:1059AC00120C42F4404242F0800220F8232030F8DE
:1059BC00232052060DD530F8232022F4E04222F0A9
:1059CC0070021204120C42F4004242F0C00220F8A1
:1059DC00232048F2800130F8232022F4E04222F008
:1059EC0070021204120C42F4404242F0800220F881
:1059FC00232030F8232022F4E04222F0400212044B
:105A0C00120C0A4320F8232030F8232022F4804281
:105A1C0022F07002B5E74B780A788BB130F822305F
:105A2C0023F4E04323F040031B041B0C83F010030E
:105A3C0043F4004343F0800320F8223000207047E9
:105A4C0030F8223023F4804323F070031B041B0C2A
:105A5C0083F48053ECE70B7B3BBB4B780A7833B376
:105A6C0030F822305B060DD530F8223023F4E043B9
:105A7C0023F070031B041B0C43F4004343F0C003DE
:105A8C0020F82230CB78012B0FD030F8223023F4C1
:105A9C00E04323F040031B041B0C83F0200343F46E
:105AAC00004343F0800320F822300020704730F888
:105ABC0022305B040DD530F8223023F4E04323F080
:105ACC0070031B041B0C43F4404343F0800320F889
:105ADC00223030F8223023F4804323F070031B046F
:105AEC001B0C83F44053DAE711B98023A0F84C3037
:105AFC00002070470020704700207047B0F8440029
:105B0C0080B270470020704700EB4202013302F56F
:105B1C0080625B0802EB83039A4200D1704731F834
:105B2C00020B22F8040BF7E7F8B50C46497805464A
:105B3C000129227B40F08E81D4F810E0A6696169BE
:105B4C00764528BF764602BBB6B2E2883346FFF7ED
:105B5C00DBFFB5F85020217890B205F20442090120
:105B6C0002448E52227835F8223023F4E04323F09D
:105B7C0040031B041B0C83F03003002043F4004350
:105B8C0043F0800325F82230F8BDE2782778022A0A
:105B9C00236A30F827204FEA071C40F0BB809E4553
:105BAC0080F09F8022F4E04222F070021204120C6A
:105BBC0042F4014242F0800220F8272030F827708E
:105BCC009B1B17F040072362B0F85020B3B244D0AF
:105BDC0097B200F20C423A4422F80C306289FFF77B
:105BEC0093FF226A236961699A428ABF931B00233F
:105BFC003246607831442362616193B2002840F0F0
:105C0C00D780B5F85000267880B205F204473601EB
:105C1C0038446AB9325A22F4F8421204120C325245
:105C2C00325A6FEA42426FEA524292B2325208E062
:105C3C003E2A09D85708D20748BF0137BF02BFB266
:105C4C0037522289284662E05709D206914A08BF8A
:105C5C0007F1FF3742EA8722E7E71FFA82FE00F2DC
:105C6C000442724422F80C302289FFF74DFF226A5D
:105C7C00236961699A4284BF971B3246607831442C
:105C8C006161276293B2002840F0D780B5F85000CC
:105C9C00267880B205F20C47360138446AB9325A7C
:105CAC0022F4F8421204120C3252325A6FEA424277
:105CBC006FEA524292B2325208E03E2A08D8570894
:105CCC00D20748BF0137BF02BFB237526289B9E76A
:105CDC005709D2066F4A08BF07F1FF3742EA8722FD
:105CEC00E8E722F4E24222F070021204120C42F4B1
:105CFC00004242F0800220F82720B0F850209BB2DE
:105D0C0096B200F20442324422F80C302289FFF79A
:105D1C00FBFE27E722F4E04222F070021204120C80
:105D2C0042F4014242F0800220F8272030F827701C
:105D3C009B1B17F040072362B0F85020B3B244D03D
:105D4C0097B200F20C423A4422F80C306289FFF709
:105D5C00DBFE226A236961699A428ABF931B002386
:105D6C003246314461612362002A3FF4FBAE607815
:105D7C0093B2E8B9B5F850602778B0B23E2A05F274
:105D8C0004464FEA0717064407D85008D20748BF05
:105D9C000130800280B2B85353E75009D2063D4A15
:105DAC0008BF00F1FF3042EA802292B2BA5348E7B2
:105DBC0001287FF446AFB5F85020207896B205F252
:105DCC0004420001324483523BE71FFA82FE00F288
:105DDC000442724422F80C302289FFF795FE226AA5
:105DEC00236961699A4284BF971B324631446161D1
:105DFC002762002A3FF4B6AE607893B2E8B9B5F8E2
:105E0C0050602778B0B23E2A05F20C464FEA0717CD
:105E1C00064407D85008D20748BF0130800280B230
:105E2C00B85353E75009D2061A4A08BF00F1FF30A5
:105E3C0042EA802292B2BA5348E701287FF446AF77
:105E4C00B5F85020207896B205F20C42000132448D
:105E5C0083523BE702BBA36921698B4288BF5A1A64
:105E6C00A261B0F8502088BF0B46217892B200F2A4
:105E7C000C4009010244002B00F0C8803E2B00F2BC
:105E8C00D3805808DE0748BF0130800280B25052E0
:105E9C004BE000BF0080FFFFE378022B79D151BBB0
:105EAC00B0F85020217893B200F204421A442369CE
:105EBC000901002B45D1885A20F4F8400004000C4D
:105ECC008852885A6FEA40406FEA504080B288523C
:105EDC00B5F85010227889B205F20C401201014439
:105EEC00002B3FD03E2B4BD85808DB0748BF013066
:105EFC00800280B25052E369BBB144F24003227875
:105F0C0035F8221003EA01008B4300D068B935F84C
:105F1C00223023F4E04323F070031B041B0C43F4E6
:105F2C00004343F0C00325F82230227835F82230A4
:105F3C0023F4804323F070031B041B0C83F44053A5
:105F4C001BE63E2B05D85808DE0748BF01308002FF
:105F5C00BCE75E09D8063A4808BF06F1FF3640EAAE
:105F6C008620B3E7535A23F4F8431B041B0C5352FB
:105F7C00535A6FEA43436FEA53439BB25352BAE707
:105F8C005809DF062E4B08BF00F1FF3043EA80238F
:105F9C00F3E7012B51D1A3692269934294BF0020EE
:105FAC00981AA06188BF13460029BED1B5F85020BD
:105FBC00217892B205F2044009010244ABB9885A27
:105FCC0020F4F8400004000C8852885A6FEA4040D4
:105FDC006FEA504080B28852B5F85010227889B2DE
:105FEC0005F20C401201014445E73E2B05D8580838
:105FFC00DE0748BF01308002ECE75E091048DF067F
:10600C0008BF06F1FF3640EA8620E3E7535A23F433
:10601C00F8431B041B0C5352535A6FEA43436FEA69
:10602C0053439BB2535280E75809DB06044B08BF1D
:10603C0000F1FF3043EA8023F3E70120A4E500BF21
:10604C000080FFFF00EB4202F0B502F580625D08B4
:10605C000C4617462E46023436B9DB0744BF32F8DD
:10606C00253001F81530F0BD37F8040B013E80B235
:10607C0004F8020C000A04F8010CECE703F03ABA3D
:10608C0003F040BA86B0042841D8DFE800F00310D2
:10609C001C2834001F4B20489A6942F004029A6174
:1060AC009B6903F004030193019B06B07047194BE5
:1060BC001A489A6942F008029A619B6903F0080336
:1060CC000293029BF1E7134B15489A6942F01002B8
:1060DC009A619B6903F010030393039BE5E70D4B57
:1060EC0010489A6942F020029A619B6903F02003E0
:1060FC000493049BD9E7074B0B489A6942F0400282
:10610C009A619B6903F040030593059BCDE7002042
:10611C00CBE700BF0010024000080140000C01401A
:10612C00001001400014014000180140F8B514495A
:10613C00064600F076FBFFF71DF9124D044655F8A4
:10614C00203073B90E49304600F06BFB0746B02087
:10615C00FFF794FF06463946FFF79AF955F82430B5
:10616C001E6055F824301C6844B12046FFF71EF918
:10617C002046BDE8F840B021FFF782BFF8BD00BF54
:10618C00DCAF0008180A00200B6807B5032B2BD9CD
:10619C000378312B28D14378452B25D18378412B9B
:1061AC0022D1C378462B1FD1FEF70CF9104BDA69BC
:1061BC0042F00062DA6144F24C22DB6903F00063C6
:1061CC000193019B0B4BC3F8102CC3F8282CBFF385
:1061DC004F8F0949094BCA6802F4E0621343CB6044
:1061EC00BFF34F8F00BFFDE703B05DF804FB00BFAA
:1061FC00001002400060004000ED00E00400FA05D1
:10620C00FCF792B8704708B5FCF782F8FCF71DF95B
:10621C00FFF7F8FF08BD70470F4B84B0DA6942F006
:10622C008052DA61DA6902F080520192019A9A691D
:10623C0042F001029A619A6902F001020292029AFA
:10624C005A6942F040025A615B6903F040030393C0
:10625C00039B04B0704700BF001002400C4BD3F8F6
:10626C00FC20D2015EBFD3F8FC2042F08072C3F850
:10627C00FC200022074B5A601A6842F001021A6097
:10628C0000BF00BF00BF5868B0FA80F040097047EB
:10629C0000ED00E0001000E008B5FFF7BDFFFFF7D0
:1062AC00DDFFFCF723F8FFF7B6FFFAF749FB0348CD
:1062BC00FCF7D0F8BDE8084002F016BE2C04002014
:1062CC000023012803F1010202D013464008F8E72D
